:100000000C945D000C9485000C9485000C94850084
:100010000C9485000C9485000C9485000C9485004C
:100020000C9485000C9485000C9485000C9485003C
:100030000C9485000C9485000C9485000C9485002C
:100040000C944F020C9485000C94BF020C949902FE
:100050000C9485000C9485000C9485000C9485000C
:100060000C9485000C9485000000000024002700FB
:100070002A0000000000250028002B0004040404CE
:100080000404040402020202020203030303030342
:10009000010204081020408001020408102001021F
:1000A00004081020000000080002010000030407FB
:1000B0000000000000000000E50411241FBECFEF87
:1000C000D8E0DEBFCDBF23E0AEE5B1E001C01D92B8
:1000D000A639B207E1F711E0A0E0B1E0ECEBFBE0FC
:1000E00002C005900D92AE35B107D9F710E0CDE50D
:1000F000D0E004C02197FE010E941205CC35D10743
:10010000C9F70E94F1020C94DC050C940000EEEAA1
:10011000F0E02491EAE9F0E09491E6E8F0E0E4917F
:10012000EE2309F43BC0222339F1233091F038F457
:100130002130A9F0223001F524B52F7D12C02730DF
:1001400091F02830A1F02430B9F4209180002F7D67
:1001500003C0209180002F77209380000DC024B52C
:100160002F7724BD09C02091B0002F7703C02091C4
:10017000B0002F7D2093B000F0E0EE0FFF1FEE588F
:10018000FF4FA591B4912FB7F894EC91811103C062
:1001900090959E2301C09E2B9C932FBF08958EBDEA
:1001A00000000DB407FEFDCF8EB5089581E00E94DA
:1001B000870080E00E94870085E00E94CF0080E0F9
:1001C0000E94CF0080FDFBCF81E00C948700CF938D
:1001D000DF9390E0FC01E057FF4F2491FC01E458CD
:1001E000FF4F8491882361F190E0880F991FFC01F3
:1001F000E859FF4FC591D491FC01EE58FF4FA591EE
:10020000B491611109C09FB7F89488812095822329
:100210008883EC912E230BC0623061F49FB7F89471
:100220003881822F809583238883EC912E2B2C9309
:100230009FBF06C08FB7F894E8812E2B28838FBF0D
:10024000DF91CF910895CF92DF92EF92FF920F93BB
:100250001F93CF93DF936C017A018B01C0E0D0E054
:10026000CE15DF0589F0D8016D918D01D601ED9194
:10027000FC910190F081E02DC6010995892B11F4C4
:100280007E0102C02196ECCFC701DF91CF911F9173
:100290000F91FF90EF90DF90CF900895089580E048
:1002A00090E00895FC01538D448D252F30E0842F7C
:1002B00090E0821B930B541710F0CF96089501978E
:1002C0000895FC01918D828D981761F0828DDF0178
:1002D000A80FB11D5D968C91928D9F5F9F73928F39
:1002E00090E008958FEF9FEF0895FC01918D828D2E
:1002F000981731F0828DE80FF11D858D90E00895FB
:100300008FEF9FEF0895FC01918D228D892F90E052
:10031000805C9F4F821B91098F739927089589EF05
:1003200092E00E94830121E0892B09F420E0822FD2
:100330000895FC01848DDF01A80FB11DA35ABF4FA2
:100340002C91848D90E001968F739927848FA689D4
:10035000B7892C93A089B1898C9180648C93938DFB
:10036000848D981306C00288F389E02D80818F7DEB
:1003700080830895EF92FF920F931F93CF93DF93A3
:10038000EC0181E0888F9B8D8C8D981305C0E889E6
:10039000F989808185FD24C0F62E0B8D10E00F5F5A
:1003A0001F4F0F731127E02E8C8DE8120CC00FB673
:1003B00007FCFACFE889F989808185FFF5CFCE0166
:1003C0000E949901F1CF8B8DFE01E80FF11DE35AD8
:1003D000FF4FF0820B8FEA89FB898081806207C022
:1003E000EE89FF896083E889F98980818064808350
:1003F00081E090E0DF91CF911F910F91FF90EF90FE
:100400000895CF93DF93EC01888D8823C9F0EA89A2
:10041000FB89808185FD05C0A889B9898C9186FDFD
:100420000FC00FB607FCF5CF808185FFF2CFA889FA
:10043000B9898C9185FFEDCFCE010E949901E7CF5C
:10044000DF91CF91089580E090E0892B29F00E9400
:100450008F0181110C9400000895009769F0FC0150
:1004600001900020E9F73197AF01481B590BBC01FF
:1004700089EF92E00C94230180E090E00895CF93FF
:10048000DF930E942D02EC0186E191E00E942D0293
:100490008C0F9D1FDF91CF9108950E9418051F9228
:1004A0000F920FB60F9211242F933F938F939F9328
:1004B000AF93BF938091F5029091F602A091F7025D
:1004C000B091F8023091F40223E0230F2D3720F48D
:1004D0000196A11DB11D05C026E8230F0296A11D9E
:1004E000B11D2093F4028093F5029093F602A0933D
:1004F000F702B093F8028091F0029091F102A0917E
:10050000F202B091F3020196A11DB11D8093F00299
:100510009093F102A093F202B093F302BF91AF91D6
:100520009F918F913F912F910F900FBE0F901F9031
:1005300018951F920F920FB60F9211242F933F938D
:100540004F935F936F937F938F939F93AF93BF93DB
:10055000EF93FF9389EF92E00E949901FF91EF9151
:10056000BF91AF919F918F917F916F915F914F91CB
:100570003F912F910F900FBE0F901F9018951F92D3
:100580000F920FB60F9211242F938F939F93EF9397
:10059000FF93E0910903F0910A038081E0910F033A
:1005A000F091100382FD12C09081809112038F5F41
:1005B0008F7320911303821751F0E0911203F0E042
:1005C000E750FD4F958F8093120301C08081FF910A
:1005D000EF919F918F912F910F900FBE0F901F90D1
:1005E0001895CF93DF93CDB7DEB7A9970FB6F894E0
:1005F000DEBF0FBECDBF789484B5826084BD84B564
:10060000816084BD85B5826085BD85B5816085BD0D
:1006100080916E00816080936E00109281008091C5
:10062000810082608093810080918100816080934D
:100630008100809180008160809380008091B10072
:1006400084608093B1008091B00081608093B0009D
:1006500080917A00846080937A0080917A00826031
:1006600080937A0080917A00816080937A008091F3
:100670007A00806880937A001092C100E0910903AB
:10068000F0910A0382E08083E0910503F091060374
:100690001082E0910703F09108038FEC80831092A1
:1006A0001103E0910D03F0910E0386E08083E09149
:1006B0000B03F0910C03808180618083E0910B0338
:1006C000F0910C03808188608083E0910B03F091AE
:1006D0000C03808180688083E0910B03F0910C0310
:1006E00080818F7D80831FB7F89480915E01811196
:1006F00026C0E6E8F0E08491EAE9F0E09491E82F82
:10070000F0E0EE0FFF1FE859FF4FA591B491EC9177
:10071000E92319F481E00E94870061E08AE00E94E9
:10072000E7008CB580618CBD8CB580648CBD61E0C8
:100730008DE00E94E70061E08BE00E94E70080917D
:100740005E018F5F80935E011FBF61E08BE00E94BE
:10075000E70060E08CE00E94E70089E191E00E9400
:100760002D0288248A94982CA82C4FE0B42E89EF6F
:1007700092E00E948301181619060CF023C189EF3C
:1007800092E00E946101C19709F01CC181E391E0F0
:100790000E943F0281E00E94870080E00E94870063
:1007A00086E00E94CF0081E00E94870080E00E94E6
:1007B000870087EC0E94CF0081E00E9487000E94A2
:1007C000D6008FE391E00E943F02C12CD12C76012C
:1007D00000E010E00E946B05A50194010E947905DC
:1007E000F801E05AFE4F90838183728363830C5F2C
:1007F0001F4F0039110571F700E611E0260137019E
:10080000E1E0003F1E0761F1D8013D908D0181E0DC
:100810000E94870080E00E94870086E00E94CF004F
:1008200081E00E94870080E00E94870082E00E94B1
:10083000CF00862D0E94CF00852D0E94CF00842DF1
:100840000E94CF00832D0E94CF0081E00E9487008C
:100850000E94D600BFEF4B1A5B0A6B0A7B0AD0CF0F
:10086000F0E9CF0ED11CE11CF11C80ECC8168FE022
:10087000D806E104F10409F0ABCFC12CD12C7601EC
:100880007E2D6D2D5C2D4427412C512C3201D3013E
:10089000C201840F951FA61FB71F8AA39BA3ACA3F9
:1008A000BDA34EA35FA368A779A70E94D60081E0ED
:1008B0000E94870080E00E94870083E00E94CF00B2
:1008C00080E00E94CF008BA10E94CF00842D0E9467
:1008D000CF0080E00E94CF0080935F0181E00E9402
:1008E0008700F201E057FF4FE05AFE4F80915F0111
:1008F00080839FEF491A590A690A790A4EA15FA1BC
:1009000068A579A54114A1E05A066104710409F0B3
:10091000BECF00E010E0C8018F709927892B29F421
:100920008FE291E00E943F0209C0C80183709927BD
:10093000892B21F48FE291E00E942D02F801E05111
:10094000FE4F408150E060E070E019A2FE01B196D8
:10095000DB01CA018F709927AA27BB2724E076956F
:100960006795579547952A95D1F731978A30910524
:10097000A105B10510F4805D01C0895C808341153B
:1009800051056105710521F7CF010E942D020F5F0E
:100990001F4F0115B1E01B0709F0BDCF8FE291E0B9
:1009A0000E943F0287E591E00E943F02EFEFCE1ADE
:1009B000DE0AEE0AFE0AF0E1CF16D104E104F104EA
:1009C00009F05ECF0E942302D2CEE9EFF2E013825B
:1009D000128288EE93E0A0E0B0E084839583A68342
:1009E000B78388E091E09183808385EC90E09587E0
:1009F000848784EC90E09787868780EC90E0918BE9
:100A0000808B81EC90E0938B828B82EC90E0958BD5
:100A1000848B86EC90E0978B868B118E128E138ED2
:100A2000148E0895EE0FFF1F0590F491E02D0994A8
:100A300081E090E0F8940C94DC058F929F92AF9245
:100A4000BF92CF92DF92EF92FF92CF93DF93EC01B0
:100A5000688179818A819B81611571058105910584
:100A600021F464E279ED8BE597E02DE133EF41E08D
:100A700050E00E94790549015A019B01AC01A7EAA7
:100A8000B1E40E9498056B017C01ACEEB4EFA501C6
:100A900094010E94A605DC01CB018C0D9D1DAE1DAD
:100AA000BF1DB7FF03C00197A109B0488883998390
:100AB000AA83BB83BC01CD019F77DF91CF91FF90CB
:100AC000EF90DF90CF90BF90AF909F908F90089560
:100AD0000E941D05089580E091E00E941D05089583
:100AE00060930001709301018093020190930301D0
:100AF0000895052E97FB1EF400940E94900557FD63
:100B000007D00E94AB0507FC03D04EF40C9490056F
:100B100050954095309521953F4F4F4F5F4F089529
:100B200090958095709561957F4F8F4F9F4F089559
:100B30000E94CD05A59F900DB49F900DA49F800DA0
:100B4000911D11240895B7FF0C9498050E949805F3
:100B5000821B930B0895A1E21A2EAA1BBB1BFD0159
:100B60000DC0AA1FBB1FEE1FFF1FA217B307E4078C
:100B7000F50720F0A21BB30BE40BF50B661F771FE4
:100B8000881F991F1A9469F76095709580959095C4
:100B90009B01AC01BD01CF010895A29FB001B39F9D
:100BA000C001A39F700D811D1124911DB29F700D76
:0C0BB000811D1124911D0895F894FFCFC1
:100BBC000100000000000000BA01230152010102F3
:100BCC008301610175010D0A00456E746572206127
:100BDC002066756E6374696F6E616C6974793A2006
:100BEC000065726173696E6720666C617368007072
:100BFC00726570616972696E672072616E646F6D87
:0E0C0C0020617272617900646F6E65210000D4
:00000001FF
